:020000040800F2
:10000000005000209D3D000811080008130800085A
:10001000150800081708000819080008000000006B
:100020000000000000000000000000001B080008A5
:100030001D080008000000001F0800082108000833
:10004000E53D0008E53D0008E53D0008E53D000808
:10005000E53D0008E53D0008E53D0008E53D0008F8
:10006000E53D0008E53D0008E53D0008E53D0008E8
:10007000E53D000849080008E53D0008E53D0008A9
:10008000E53D000839080008E53D0008E53D0008A9
:10009000E53D0008E53D0008E53D0008E53D0008B8
:1000A000E53D0008F12F0008E53D0008E53D0008AA
:1000B00001300008E53D0008E53D0008E53D000889
:1000C000E53D0008E53D0008E53D0008E53D000888
:1000D000E53D0008E53D00086908000859080008EA
:1000E000E53D0008E53D0008E53D00080000000092
:1000F0000000000000000000000000000000000000
:0C01000000000000000000005FF808F1A3
:10010C0010B5054C237833B9044B13B10448AFF345
:10011C0000800123237010BDD001002000000000DE
:10012C00403E000808B5034B1BB103490348AFF32D
:10013C00008008BD00000000D4010020403E0008F3
:10014C0082B0084B93E8030002AB03E90300064BB3
:10015C005B7813F0080F01D1034B5B78002002B0E1
:10016C00704700BF583E00086808002030B583B0C7
:10017C00294B93E8030002AB03E90300274B9B7860
:10018C0013F0100F02D1264B01221A60234B9B78DF
:10019C0013F0100F03D0224B1B68012B06D0214B00
:1001AC001C687CB30024204603B030BD1B4B9B78ED
:1001BC0013F0200FF3D11B4B1B6843B1012B02D161
:1001CC00184B00221A60164B00221A60E7E7154BF9
:1001DC0001221A60F7E7114803F07CFA002101EBC9
:1001EC0041016A46104B03EB41014E2303FB00F027
:1001FC0000F062FB013506E0084803F04FFA40427C
:10020C000121ECE72546012DCDDC002DE3D0012D9D
:10021C00F2D00124C7E700BF583E00086808002050
:10022C00EC010020F00100202400002030B583B048
:10023C000A4D0B4C0B4B2D222946204602F08AFF0F
:10024C0000F01EF9084B5B6A0093084B4D222946BF
:10025C00204602F07FFF002003B030BDCC3E0008EA
:10026C00B83E0008B03E0008F4010020BC3E000877
:10027C0008B5FFF77BFF00B108BDFFF761FFFBE797
:10028C00FEE700002DE9F843694C4FF4C6720021DB
:10029C00204603F0C7FD4FF0140EC4F804E06FF0D5
:1002AC001306A660DFF88CC104F10C039CE8070070
:1002BC0083E807000025A5612527E7612584C4F89C
:1002CC0028E0E66204F130060CF110030FCB07C6F0
:1002DC003370A4F83D5084F83F502764A4F8445080
:1002EC003223A364C823E36404F154060CF1200305
:1002FC000FCB07C63380A4F862504F4B93E8030032
:10030C006066A4F868100A23E36640F2E7332367BB
:10031C000123636704F178030CF1300207CA03C3AD
:10032C0023F8022B120C1A70C4F8835084F88750EF
:10033C007323C4F88830A4F88C504FF00409C4F827
:10034C0090904FF00608C4F894800227C4F8987077
:10035C0004F19C060CF1400C9CE80F0007C626F833
:10036C00023B1B0C337084F8AB50344EC4F8AC60B9
:10037C00A4F8B050C4F8B490C4F8B880C4F8BC70F9
:10038C0004F1C00E9CE80F00AEE807002EF8023B0B
:10039C001B0C8EF8003084F8CF50C4F8D060A4F851
:1003AC00D450C4F8D890C4F8DC80C4F8E07004F1E0
:1003BC00E40E9CE80F00AEE807002EF8023B1B0C85
:1003CC008EF8003084F8F350C4F8F460A4F8F850B8
:1003DC00C4F8FC90C4F80081C4F8047104F5847E60
:1003EC009CE80F00AEE807002EF8023B1B0C8EF8C1
:1003FC00003084F81751C4F81861A4F81C51C4F8E3
:10040C002091C4F82481C4F8287104F5967E9CE8E8
:10041C000F00AEE807002EF8023B1B0C8EF80030E4
:10042C0084F83B51C4F83C61A4F84051BDE8F88312
:10043C00F4010020603E0008D43E00082F31360045
:10044C00002209E0930003F1006303F5FE33196801
:10045C00094B43F8221001320C2AF3DD002307E08C
:10046C00064A52F82320044951F823101160013335
:10047C00082BF5DD704700BF800300200000002032
:10048C0008B5FFF7FFFEFFF7DBFF08BD00B583B033
:10049C001C4B9A6942F001029A619B6903F00103BB
:1004AC000193019B032000F09DFA002211466FF08E
:1004BC000B0000F0B5FA002211466FF00A0000F0B4
:1004CC00AFFA002211466FF0090000F0A9FA0022E1
:1004DC0011466FF0040000F0A3FA002211466FF0F1
:1004EC00030000F09DFA002211466FF0010000F0AD
:1004FC0097FA002211464FF0FF3000F091FA03B04A
:10050C005DF804FB0010024010B588B00368394A4E
:10051C00934204D0384A934255D008B010BD374BA3
:10052C009A6942F008029A619B6903F008030193EF
:10053C00019B304A1368C3F30E0313604FF44073EE
:10054C00049311230593022307932D4C04A92046F1
:10055C0000F01EFDE36843F44073E360284B9B6896
:10056C0003F44073B3F5407FF8D1254AD36823F4E4
:10057C004073D360224B9B6813F4407FFAD14FF445
:10058C0040730493122305930323079304A91C4877
:10059C0000F0FEFC1B4A536843F002035360174BF8
:1005AC00DA6942F40012DA61DB6903F40013029396
:1005BC00029B104B1A6842F400421A601A68C2F38C
:1005CC000E021A60A9E74FF44063049312230593BB
:1005DC000323079304A90A4800F0DAFC074BDA69F5
:1005EC0042F48002DA61DB6903F480030393039B1A
:1005FC0093E700BF00540040005800400010024038
:10060C00000C014000000140F0B58DB00368724A47
:10061C00934209D00446714A93422FD0704A9342B8
:10062C0000F086800DB0F0BD6E4B9A6942F48042AA
:10063C009A619A6902F480420192019A9A6942F095
:10064C0004029A619B6903F004030293029B4FF42A
:10065C00007308930223099303230B93624C08A99C
:10066C00204600F095FC4FF4806308930023099317
:10067C000A9308A9204600F08BFCD3E7594EF36986
:10068C0043F40033F361F36903F400330393039BE6
:10069C00B36943F00403B361B36903F00403049337
:1006AC00049B042308930223099303230B934E4FBB
:1006BC0008A9384600F06CFC08230893002509951E
:1006CC000A9508A9384600F063FC736943F00103EE
:1006DC007361736903F001030593059B434E444B0F
:1006EC00336010277760B5608023F36035617561E6
:1006FC00B561F561304600F037FA26637462012269
:10070C002946112000F08CF9112000F0CFF92A466F
:10071C002946384600F084F9384600F0C7F9012222
:10072C002946262000F07CF9262000F0BFF979E755
:10073C002C4BDA6942F48022DA61DA6902F4802205
:10074C000692069A9A6942F010029A619B6903F02C
:10075C0010030793079B4FF48063089302230993BC
:10076C0003230B93234D08A9284600F011FC4FF4EA
:10077C0000630893002609960A9608A9284600F0FB
:10078C0007FC1D4A536823F0300343F010035360F9
:10079C001A4D1B4B2B606E60AE608023EB602E619C
:1007AC006E61AE614FF40053EB61284600F0DCF94A
:1007BC0065636C62324631460D2000F031F90D2034
:1007CC0000F074F901223146272000F029F9272086
:1007DC0000F06CF926E700BF0038014000440040EF
:1007EC0000480040001002400008014000040020B6
:1007FC00800002400010014000000140C8030020AE
:10080C00300002407047FEE7FEE7FEE7FEE7704768
:10081C007047704708B500F0C9F800F090F9024A2B
:10082C0013680133136008BD6408002008B5024B3F
:10083C00186B00F075FA08BD4401002008B5024B96
:10084C00586B00F06DFA08BD8401002008B5024811
:10085C0002F0C7FA08BD00BF8401002008B50248A9
:10086C0002F0BFFA08BD00BF440100200F4B1A680C
:10087C0042F001021A6059680D4A0A405A601A681F
:10088C0022F0847222F480321A601A6822F48022D8
:10089C001A605A6822F4FE025A604FF41F029A60E2
:1008AC00044B4FF000629A60704700BF001002408A
:1008BC000000FFF800ED00E04B8891F804C0BCF19B
:1008CC00010F13D0BCF1020F21D0002836DDC01A65
:1008DC0012689042D4BF1B189B18002B38DD0122E4
:1008EC000A71002BB8BF5B424B807047834206DA1B
:1008FC00C01A12689042D4BF1B189B18EDE7C01A9F
:10090C00526852429042ACBF1B189B18E5E7C3F1EA
:10091C00000C844509DD1844126852429042ACBF69
:10092C00C3EB0003C3EB0203D7E7184452689042B1
:10093C00D4BFC3EB0003C3EB0203CEE71844126829
:10094C0052429042ACBFC3EB0003C3EB0203C4E7BB
:10095C00002B02DB03220A71C3E702220A71C0E7F3
:10096C0010B5044601F066FD064BA3FB0030800970
:10097C0000F0B2F8002221464FF0FF3000F050F8A2
:10098C00002010BDD34D621008B5074A136843F020
:10099C0010031360032000F025F80020FFF7E0FFA0
:1009AC00FFF774FD002008BD00200240024A1368C6
:1009BC0001331360704700BF38040020014B1868E6
:1009CC00704700BF3804002010B582B00190FFF7CB
:1009DC00F5FF0446FFF7F2FF001B019B9842F9D389
:1009EC0002B010BD10B50446C31E042B0FD80A4A22
:1009FC00D36823F4E0631B041B0C240204F4E064AE
:100A0C00234343F0BF6343F40033D36010BDBA21DA
:100A1C000248FFF735FCEAE700ED00E0F43E000881
:100A2C0070B505460C4616460F2A25D80F2C28D82B
:100A3C001B4BDB68C3F30223C3F10701042928BF56
:100A4C0004211A1D062A21D9033B4FF0FF3202FA6A
:100A5C0001F124EA01049C4002FA03F326EA03069E
:100A6C003443002D14DB2401E4B205F1604505F597
:100A7C00614585F8004370BDD2210A48FFF700FCA0
:100A8C00D4E7D3210748FFF7FBFBD1E70023DCE7D2
:100A9C0005F00F052401E4B2034B5C55EBE700BFF6
:100AAC0000ED00E0F43E000814ED00E010B5041E6B
:100ABC0008DB04F01F02640901239340044A42F846
:100ACC00243010BDE6210348FFF7DAFBF1E700BF45
:100ADC0000E100E0F43E00080138B0F1807F0BD259
:100AEC004FF0E0235861054AF02182F823100020D2
:100AFC00986107221A6170470120704700ED00E0F1
:100B0C0010B50446042800D040B9042C0CD04FF08A
:100B1C00E022136923F00403136110BD4FF4DF715D
:100B2C000548FFF7ADFBF0E74FF0E022136943F007
:100B3C0004031361F1E700BFF43E0008704708B5E9
:100B4C00FFF7FCFF08BDD0F800C0CCF804304368B8
:100B5C00102B04D0036899600368DA60704703684F
:100B6C009A600368D9607047002800F0928010B535
:100B7C0004460368484A934215D01432934212D06B
:100B8C00143293420FD0143293420CD0143293424D
:100B9C0009D01432934206D01432934203D0B521BB
:100BAC003E48FFF76DFB636823B1102B02D0B3F501
:100BBC00804F4BD1A368402B01D0002B4BD1E36865
:100BCC00802B01D0002B4BD123692BB1B3F5807F47
:100BDC0002D0B3F5007F48D163692BB1B3F5806FB8
:100BEC0002D0B3F5006F45D1A3690BB1202B46D1D0
:100BFC00E36943B1B3F5805F05D0B3F5005F02D074
:100C0C00B3F5405F40D194F821300BB984F8203013
:100C1C00022384F8213021680A6822F47F5222F0E2
:100C2C0030026368A0680343E06803432069034310
:100C3C0060690343A0690343E069034313430B60FA
:100C4C0000206063012384F8213010BDB6211348C5
:100C5C00FFF716FBAEE7B7211048FFF711FBAEE725
:100C6C00B8210E48FFF70CFBAEE7B9210B48FFF794
:100C7C0007FBB1E7BA210948FFF702FBB4E7BB2138
:100C8C000648FFF7FDFAB3E7BC210448FFF7F8FA72
:100C9C00B9E70120704700BF080002402C3F000854
:100CAC00F8B51D4690F82030012B34D004460E4682
:100CBC001746012380F82030022380F821306A1E69
:100CCC004FF6FE739A4220D82268136823F0010372
:100CDC0013602B463A4631462046FFF734FF226814
:100CEC00136843F0020313602268136843F0040393
:100CFC0013602268136843F00803136022681368BA
:100D0C0043F0010313600020F8BD40F26111034869
:100D1C00FFF7B6FAD8E70220F6E700BF2C3F000831
:100D2C0010B50446984B1A68036898498B4214D046
:100D3C0014318B4232D014318B4231D014318B426E
:100D4C0031D014318B4231D014318B4202D04FF060
:100D5C00006103E04FF4000100E008210A423CD09E
:100D6C001A6812F0080F38D01A6822F008021A60BC
:100D7C002368864A93421FD01432934245D01432D2
:100D8C00934244D01432934244D01432934244D010
:100D9C00143293420DD04FF000620EE08021DDE75B
:100DAC004FF40061DAE74FF40041D7E74FF400212C
:100DBC00D4E74FF4000200E00822734B5A60636BD7
:100DCC0043F001036363042384F82130002384F887
:100DDC002030236B0BB1204698476B4B1A68236865
:100DEC006A498B421FD014318B4241D014318B4253
:100DFC0040D014318B4240D014318B4240D014314E
:100E0C008B420DD04FF080610EE08022D5E74FF47D
:100E1C000062D2E74FF40042CFE74FF40022CCE758
:100E2C004FF4800100E004210A4239D01A6812F014
:100E3C00040F35D01A6812F0200F03D11A6822F073
:100E4C0004021A602368514A93421FD01432934211
:100E5C003ED0143293423DD0143293423DD01432E2
:100E6C0093423DD0143293420DD04FF080620EE08D
:100E7C004021D9E74FF48061D6E74FF48041D3E7A6
:100E8C004FF48021D0E74FF4800200E004223E4B67
:100E9C005A60112384F82130E36A0BB1204698473D
:100EAC00394B1A68236839498B421FD014318B4255
:100EBC0041D014318B4240D014318B4240D014318C
:100ECC008B4240D014318B420DD04FF000710EE0AC
:100EDC004022DCE74FF48062D9E74FF48042D6E73A
:100EEC004FF48022D3E74FF4001100E002210A42B4
:100EFC003ED01A6812F0020F3AD01A6812F0200F86
:100F0C0003D11A6822F002021A6023681F4A934226
:100F1C001FD0143293422CD0143293422BD0143263
:100F2C0093422BD0143293422BD0143293420DD0D7
:100F3C004FF000720EE02021D9E74FF40071D6E794
:100F4C004FF40051D3E74FF40031D0E74FF40012C7
:100F5C0000E002220C4B5A60636B6363012384F83C
:100F6C002130002384F82030A36A0BB12046984727
:100F7C0010BD2022EEE74FF40072EBE74FF4005265
:100F8C00E8E74FF40032E5E70000024008000240B9
:100F9C002DE9F04383B080460E467C4B984213D02B
:100FAC0003F5806398420FD003F5806398420BD011
:100FBC0003F58063984207D003F58063984203D011
:100FCC00CF217348FFF75CF933882BB37368012B7F
:100FDC001ED9112B1CD0022B1AD0122B18D06D4AF3
:100FEC00934215D002F58012934211D002F5801273
:100FFC0093420DD0A2F5F812934209D002F580125B
:10100C00934205D002F58012934201D0032B08D1F4
:10101C004FF000094D46EFE0D0215D48FFF730F965
:10102C00D4E7D1215A48FFF72BF9F1E75A4A9342FA
:10103C0010D007D9594A93420CD002F58032934212
:10104C0008D019E0A2F58012934203D002F5702269
:10105C0093420DD1B368022B7ED8B368002B00F0FD
:10106C008980012B7ED0C8F814404FF0080903E0AA
:10107C00A2F580129342EDD0FF2F7ED84046FF2F71
:10108C007ED8AA0003680F21914023EA010309FAD4
:10109C0002F213430360736813F0805F00F0AB80BF
:1010AC003F4B9A6942F001029A619B6903F001037C
:1010BC000193019BAA08911C3A4B53F8210005F0AF
:1010CC00030399000F238B4020EA03002F4B984514
:1010DC006AD003F58063984500F0E08003F58063E7
:1010EC00984500F0DD8003F5806398454CD00423CF
:1010FC005BE0F368013B022B02D8D6F80C90BBE7FF
:10110C00E7212348FFF7BCF8F7E7F368013B022B14
:10111C0003D8F36803F10409AEE7EE211C48FFF78E
:10112C00AFF8F6E7F368013B022B03D8F36803F141
:10113C000809A1E7F5211648FFF7A2F8F6E7F368CE
:10114C00013B022B03D8F36803F10C0994E7FC2153
:10115C000F48FFF795F8F6E740F209110C48FFF736
:10116C008FF87AE7C8F810404FF0080984E74FF081
:10117C00000981E74FF004097EE708F104007EE7DF
:10118C00A5F1080292007DE703230EE00008014060
:10119C00643F000800001110000022100000311004
:1011AC00001002400000014000238B400343023238
:1011BC004A4941F82230736813F4803F72D0484A90
:1011CC0013683B431360736813F4003F70D0444AB8
:1011DC0053683B435360736813F4801F6ED0404ACE
:1011EC0093683B439360736813F4001F6CD03C4AC4
:1011FC00D3681F43D76001350F2D6BD80124AC4049
:10120C00336803EA040734EA0303F4D1354B9845F9
:10121C0013D003F5806398450FD003F58063984590
:10122C000BD003F58063984507D003F58063984590
:10123C0003D0DF212C48FFF723F87368122B3FF6FD
:10124C00F5AE122B3FF618AF01A252F823F000BFF7
:10125C0061100008FF100008311100087B11000814
:10126C0085100008851000088510000885100008FE
:10127C0085100008851000088510000885100008EE
:10128C0085100008851000088510000885100008DE
:10129C0085100008171100084B110008012384E782
:1012AC00022382E70E4A136823EA070313608AE7D6
:1012BC000B4A536823EA070353608CE7084A936888
:1012CC0023EA070393608EE7054AD36823EA0707EE
:1012DC00D76090E703B0BDE8F08300BF0000014089
:1012EC000004014000080140643F000870B5054649
:1012FC0014460E4621B1012C08D86CB12E6170BD7C
:10130C004FF4F2710648FEF7BBFFF4E740F2E5112B
:10131C000348FEF7B5FFF0E736042E61EFE700BF98
:10132C00643F00084368124A934209D85800B1FB45
:10133C00F0F040F6FC73184200D070470420704760
:10134C0082685AB903EB4300B1FBF0F040F4004063
:10135C00C0F30B03002BF0D10120EEE703EB83006D
:10136C0000EB8000B1FBF0F040F44040F0E700BF30
:10137C00A086010003685A6912F4806F01D1002025
:10138C0070475A6922F480625A61042383632023D4
:10139C0080F83530002380F83430012070472DE977
:1013AC00F04106460C4690461D46FFF707FB0746E4
:1013BC00B8F1000F1AD043E025B1FFF7FFFAC01BBC
:1013CC00A84213D9202386F83530002386F8343010
:1013DC00032019E033689B6924EA03039BB2003BAA
:1013EC0018BF01237BB1B5F1FF3FE5D1C4F307432F
:1013FC00012BEFD133685B6924EA03039BB2003BFA
:10140C0018BF0123EEE74046BDE8F08125B1FFF798
:10141C00D5FAC01BA84213D9202386F835300023F7
:10142C0086F834300320EFE733689A6924EA020225
:10143C0092B2B2FA82F252097AB1B5F1FF3FE5D11C
:10144C00C4F30743012BEFD133685A6924EA020233
:10145C0092B2B2FA82F25209EEE70020D4E7F8B564
:10146C0004460D461646FFF7A9FA074631E01A68FE
:10147C0042F400721A602268536923F4806353614A
:10148C000423A363202384F83530002384F83430FC
:10149C0001202CE026B1FFF791FAC01BB04218D9FD
:1014AC00202384F83530002384F8343003201EE0E8
:1014BC0023689B6925EA03039BB2003B18BF0123F9
:1014CC00A3B123685A6912F4806FD0D1B6F1FF3FF3
:1014DC00E0D1C5F30743012BEAD123685B6925EA08
:1014EC0003039BB2003B18BF0123E9E70020F8BDC2
:1014FC0070B504460D4616460268136843F48073B3
:10150C001360334600224FF00111FFF748FF60BB18
:10151C002369B3F5804F0ED1236805F0FE051D61DC
:10152C00324613492046FFF79AFFF8B1A36B042B00
:10153C0019D003201AE0EB11226803F0060343F0E4
:10154C00F003136132460B492046FFF788FF30B198
:10155C00A36B042B01D0032008E0012006E02368D4
:10156C00EDB21D61DCE7012000E0032070BD00BF7F
:10157C00020001000800010070B504460D46FFF79B
:10158C001DFA064623685B6913F0800F18D12046BC
:10159C00FFF7F0FEB0B9B5F1FF3FF3D025B1FFF77F
:1015AC000DFA801BA842EDD9A36B43F02003A36373
:1015BC00202384F83530002384F83430032000E0F5
:1015CC00002070BD0120FCE770B504460D46FFF706
:1015DC00F5F9064623685B6913F0040F18D1204611
:1015EC00FFF7C8FEB0B9B5F1FF3FF3D025B1FFF757
:1015FC00E5F9801BA842EDD9A36B43F02003A3634C
:10160C00202384F83530002384F83430032000E0A4
:10161C00002070BD0120FCE7002800F0B38038B535
:10162C0004460368584A934208D002F580629342FC
:10163C0004D04FF4A5715548FEF722FE6368013BB8
:10164C00534A93425ED8A36813B1B3F5804F5FD170
:10165C00E36823F47F7323F00303002B5ED123692B
:10166C00B3F5804F02D0B3F5404F5DD16369012BC8
:10167C0060D8A36933F0FE0362D1E3690BB1402B50
:10168C0064D1236A0BB1802B66D194F83530002BD2
:10169C0068D0242384F835302268136823F00103C2
:1016AC00136000F0CDFE01463A4BA3FB00239B0CCC
:1016BC00226853606068384A904259D801332268D6
:1016CC00136225682046FFF72DFEE861E369216A65
:1016DC0022680B4313602369E16822680B43936013
:1016EC006369A16922680B43D3602268136843F0D5
:1016FC00010313600020A063202384F8353084F8A4
:10170C00360038BD40F24B112048FEF7B9FD9AE780
:10171C004FF4A6711D48FEF7B3FD99E740F24D1149
:10172C001A48FEF7ADFD9AE74FF4A7711748FEF77C
:10173C00A7FD9BE740F24F111448FEF7A1FD98E777
:10174C004FF4A8711148FEF79BFD96E740F251113A
:10175C000E48FEF795FD94E74FF4A9710B48FEF780
:10176C008FFD92E784F834302046FEF7CDFE90E7EB
:10177C004FF4967202FB03F3084AA2FB03239B0966
:10178C0001339CE701207047005400409C3F000847
:10179C007F1A060083DE1B43A0860100D34D621026
:1017AC00F0B583B01D4690F83530DBB2202B40F0FD
:1017BC00858004460F461646002A00F082800DB93B
:1017CC0001207CE042F2107301224149FFF7E7FD52
:1017DC00002878D194F83430012B76D0012384F88A
:1017EC0034302268136823F400631360212384F8D7
:1017FC003530102384F836300023A363089A394619
:10180C002046FFF775FE60B1A36B042B04D00023B8
:10181C0084F83430032052E0002384F83430012063
:10182C004DE023685A6901929B690193019B0DE07D
:10183C00A36B042B01D0032041E02268136843F40E
:10184C000073136001203AE01D461646CDB108998D
:10185C002046FFF791FE0028EAD13246236812F8A1
:10186C00011B19616B1E9BB22168486910F0040FB3
:10187C00EAD0002BE8D013780B61AB1E9BB2B21CE4
:10188C00E2E708992046FFF79FFE58B1A36B042BA3
:10189C0001D0032013E02268136843F40073136033
:1018AC0001200CE02268136843F4007313602023BA
:1018BC0084F83530002384F8343000E0022003B083
:1018CC00F0BD0120FBE70220F9E70220F7E700BF9B
:1018DC000200100070470000002844D010B50446E8
:1018EC000268234B9A4203D0A6212248FEF7C8FC7B
:1018FC006368062B28D8A368B3F5805F29D22368C8
:10190C00DA6812F0010F03D0DB6813F0020F2CD150
:10191C00637B1BB302236373236845F255521A6031
:10192C002268536823F0070361680B4353602268F5
:10193C00936823F47F6323F00F03A1680B43936038
:10194C0001236373002010BDA7210A48FEF798FC01
:10195C00D1E7A8210748FEF793FCD0E72373204674
:10196C00FFF7B8FFD6E7012070470120EBE700BF77
:10197C0000300040D43F0008037B012B10D0012322
:10198C0003730222427302684CF6CC411160026868
:10199C004AF6AA211160437300230373184670475B
:1019AC000220704738B5037B012B1FD0044601235E
:1019BC00037302234373FFF701F805462368DA68C3
:1019CC0012F0020F0AD0FEF7F9FF431BB3F57A7F32
:1019DC00F4D9032060730023237306E04AF6AA228D
:1019EC001A60012363730020207338BD0220FCE7CA
:1019FC0030B583B0044688B3236813B113F00F0FCE
:101A0C0032D0236813F0010F56D063682BB1B3F5B5
:101A1C00803F02D0B3F5A02F2CD1B24B5B6803F002
:101A2C000C03042B31D0AF4B5B6803F00C03082B79
:101A3C0026D06368B3F5803F00F08380002B40F024
:101A4C00A58003F1804303F504331A6822F4803235
:101A5C001A601A6822F480221A6077E04FF48771BA
:101A6C00A148FEF70DFCC7E740F20F119E48FEF7A8
:101A7C0007FCC6E740F215119B48FEF701FCCCE7CA
:101A8C00984B5B6813F4803FD3D04FF4003393FA38
:101A9C00A3F3944B1A684FF4003393FAA3F3B3FAFD
:101AAC0083F303F01F0322FA03F313F0010F03D0A7
:101ABC006368002B00F01483236813F0020F00F00E
:101ACC00D2802369012B00F2998063691F2B00F2ED
:101ADC009B80844B5B6813F00C0F00F0A180814B52
:101AEC005B6803F00C03082B00F094802369002B37
:101AFC0000F0FE80012292FAA2F3B3FA83F39B006A
:101B0C0003F1844303F584031A60FEF757FF05467F
:101B1C00022393FAA3F3734B1A68022393FAA3F3E9
:101B2C00B3FA83F303F01F0322FA03F313F0010F4C
:101B3C0040F0C880FEF742FF401B0228E8D9032082
:101B4C00D7E2684A136843F4803313606368002B50
:101B5C0036D0FEF733FF05464FF4003393FAA3F368
:101B6C00604B1A684FF4003393FAA3F3B3FA83F380
:101B7C0003F01F0322FA03F313F0010F9CD1FEF7BD
:101B8C001DFF401B6428E7D90320B2E2B3F5A02F58
:101B9C0009D0544B1A6822F480321A601A6822F465
:101BAC0080221A60D2E703F18043A3F53C331A6814
:101BBC0042F480221A601A6842F480321A60C5E737
:101BCC00FEF7FCFE05464FF4003393FAA3F3454BA6
:101BDC001A684FF4003393FAA3F3B3FA83F303F0C8
:101BEC001F0322FA03F313F0010F3FF465AFFEF766
:101BFC00E5FE401B6428E6D903207AE240F2491145
:101C0C003948FEF73DFB60E74FF4A5713648FEF707
:101C1C0037FB5EE7334B5B6813F4803F7FF466AFB2
:101C2C00022393FAA3F32F4B1A68022393FAA3F31C
:101C3C00B3FA83F303F01F0322FA03F313F0010F3B
:101C4C0003D02369012B40F04D822648036823F012
:101C5C00F8036169F82292FAA2F2B2FA82F201FA5E
:101C6C0002F213430360236813F0080F70D0A369CA
:101C7C00012B64D8A369002B00F09280012292FA08
:101C8C00A2F3B3FA83F3194941F82320FEF796FE29
:101C9C000546022393FAA3F293FAA3F2114A526A6D
:101CAC0093FAA3F3B3FA83F303F01F0322FA03F3BB
:101CBC0013F0010F49D1FEF781FE401B0228E8D931
:101CCC00032016E20748036823F0F8036169F82241
:101CDC0092FAA2F2B2FA82F201FA02F21343036010
:101CEC00C1E700BF001002400C40000880044242D3
:101CFC00012393FAA3F3B3FA83F39B0003F1844318
:101D0C0003F5840300221A60FEF758FE05460223F1
:101D1C0093FAA3F3AF4B1A68022393FAA3F3B3FA23
:101D2C0083F303F01F0322FA03F313F0010F9AD08D
:101D3C00FEF744FE401B0228E9D90320D9E14FF4F9
:101D4C00C571A548FEF79CFA94E70120FEF73CFE0E
:101D5C00236813F0040F00F0C580E368012B01D950
:101D6C00052B42D19B4BDA6942F08052DA61DB6978
:101D7C0003F080530193019B984A136843F48073DA
:101D8C001360FEF71BFE0546944B1B6813F4807F13
:101D9C0031D1FEF713FE401B6428F5D90320A8E1CE
:101DAC00012393FAA3F3B3FA83F38D4A002142F88B
:101DBC002310FEF703FE0546022393FAA3F293FACF
:101DCC00A3F2844A526A93FAA3F3B3FA83F303F0AF
:101DDC001F0322FA03F313F0010FB9D0FEF7EEFD47
:101DEC00401B0228E8D9032083E140F2B7117A485E
:101DFC00FEF746FAB6E7E368012B0DD0C3B903F141
:101E0C00804303F504331A6A22F001021A621A6A3B
:101E1C0022F004021A6204E06E4A136A43F00103D2
:101E2C001362E368002B39D0FEF7C8FD05462BE0A2
:101E3C00052B09D0674B1A6A22F001021A621A6A42
:101E4C0022F004021A62ECE7624B1A6A42F00402B6
:101E5C001A621A6A42F001021A62E2E75D4B1A6AD0
:101E6C00022393FAA3F3B3FA83F303F01F0322FACA
:101E7C0003F313F0010F35D1FEF7A0FD401B41F227
:101E8C008833984200F23081022393FAA3F293FA3A
:101E9C00A3F3002BE2D14F4B5A6AE1E7FEF78EFD1C
:101EAC00054615E04B4B1A6A022393FAA3F3B3FAD7
:101EBC0083F303F01F0322FA03F313F0010F11D085
:101ECC00FEF77CFD401B41F28833984200F20E81F4
:101EDC00022393FAA3F293FAA3F3002BE2D13D4B26
:101EEC005A6AE1E7E369022B68D8E369002B00F03A
:101EFC00FF80384A526802F00C02082A00F0FB807E
:101F0C00022B40F0C180236A13B1B3F5803F5BD143
:101F1C00636A4BB3B3F5802F26D0B3F5002F23D0D3
:101F2C00B3F5402F20D0B3F5801F1DD0B3F5A01F03
:101F3C001AD0B3F5C01F17D0B3F5E01F14D0B3F50A
:101F4C00001F11D0B3F5101F0ED0B3F5201F0BD00E
:101F5C00B3F5301F08D0B3F5401F05D0B3F5501FB3
:101F6C0002D0B3F5601F3DD14FF0807393FAA3F309
:101F7C00B3FA83F39B0003F1844303F5840300223B
:101F8C001A60FEF71BFD05464FF0007393FAA3F39E
:101F9C00104B1A684FF0007393FAA3F3B3FA83F360
:101FAC0003F01F0322FA03F313F0010F20D0FEF706
:101FBC0005FD401B0228E7D903209AE040F2472197
:101FCC000548FEF75DF990E74FF414710248FEF7EF
:101FDC0057F99DE7001002400C40000800700040CB
:101FEC008004424240F251214448FEF749F9BBE7D4
:101FFC00236AB3F5803F32D041494B6823F4741304
:10200C00226A606A024313434B604FF0807393FA69
:10201C00A3F3B3FA83F39B0003F1844303F5840326
:10202C0001221A60FEF7CAFC04464FF0007393FAC3
:10203C00A3F3334B1A684FF0007393FAA3F3B3FA7C
:10204C0083F303F01F0322FA03F313F0010F19D1EA
:10205C00FEF7B4FC001B0228E7D9032049E0A36873
:10206C0013B1B3F5003F07D1254A536823F400336D
:10207C00A1680B435360BFE740F267211F48FEF78E
:10208C00FFF8F1E7002034E04FF0807393FAA3F3EC
:10209C00B3FA83F39B0003F1844303F5840300221A
:1020AC001A60FEF78BFC04464FF0007393FAA3F30F
:1020BC00134B1A684FF0007393FAA3F3B3FA83F33C
:1020CC0003F01F0322FA03F313F0010F06D0FEF7FF
:1020DC0075FC001B0228E7D903200AE0002008E069
:1020EC00012006E0012004E0032002E0032000E0D0
:1020FC00002003B030BD0120FBE700BF0C400008FE
:10210C000010024086B01E4B0FCB0DF1180C0CE9E1
:10211C000F0040F20123ADF804301A4B5B6803F05A
:10212C000C02082A02D0184806B0704703F470124B
:10213C004FF4701191FAA1F1B1FA81F1CA40183241
:10214C006A4412F8100C13F4803F14D00D4B5B68EA
:10215C0003F400334FF4003292FAA2F2B2FA82F294
:10216C00D34018336B4413F8142C074BB3FBF2F326
:10217C0003FB00F0D8E7054B03FB00F0D4E700BFEE
:10218C00444000080010024000127A0000093D0093
:10219C0070B50C46054600286FD02B6813F00F0F56
:1021AC0071D0022C75D89E4B1B6803F00703A34219
:1021BC000BD29B4A136823F0070323431360136865
:1021CC0003F00703A34240F024812B6813F0020FA5
:1021DC0018D0AB687BB1802B0DD0902B0BD0A02BE3
:1021EC0009D0B02B07D0C02B05D0D02B03D0E02BBF
:1021FC0001D0F02B53D18B4A536823F0F003A9681C
:10220C000B4353602B6813F0010F00F09C806B683C
:10221C00022B4AD86B68012B4DD0022B60D00222C6
:10222C0092FAA2F27F4A1168022292FAA2F2B2FA50
:10223C0082F202F01F0221FA02F212F0010F00F0FA
:10224C00EA8078494A6822F0030213434B60FEF798
:10225C00B5FB06466B68012B57D0022B64D0714B33
:10226C005B6813F00C0F6ED0FEF7A8FB831B41F2DA
:10227C0088329342F3D90320BEE04FF42F716A48A1
:10228C00FDF7FEFF89E740F2BD216748FDF7F8FF37
:10229C0087E740F2BE216448FDF7F2FF83E740F286
:1022AC00D7216148FDF7ECFFA5E740F2DE215E483F
:1022BC00FDF7E6FFAEE74FF4003292FAA2F2594A6C
:1022CC0011684FF4003292FAA2F2B2FA82F202F0E2
:1022DC001F0221FA02F212F0010FB2D101208BE0A1
:1022EC004FF0007292FAA2F24E4A11684FF000724F
:1022FC0092FAA2F2B2FA82F202F01F0221FA02F270
:10230C0012F0010F9DD1012076E0464B5B6803F083
:10231C000C03042B17D0FEF751FB831B41F28832C0
:10232C009342F2D9032067E03E4B5B6803F00C0349
:10233C00082B08D0FEF742FB801B41F288339842F1
:10234C00F2D9032058E0364B1B6803F00703A34275
:10235C000AD9334A136823F0070323431360136825
:10236C0003F00703A34258D12B6813F0040F14D0C9
:10237C00EB685BB1B3F5806F08D0B3F5A06F05D0F7
:10238C00B3F5C06F02D0B3F5E06F36D1254A536870
:10239C0023F4E063E9680B4353602B6813F0080FD8
:1023AC0015D02B695BB1B3F5806F08D0B3F5A06F76
:1023BC0005D0B3F5C06F02D0B3F5E06F23D1194A45
:1023CC00536823F46053296943EAC1035360FFF750
:1023DC0099FE144B5B6803F0F003F02292FAA2F220
:1023EC00B2FA82F2D340114AD35CD840104B186039
:1023FC000020FEF7B5FA002070BD40F232310A48D9
:10240C00FDF73EFFC2E740F239310748FDF738FFD0
:10241C00D5E70120F0E70120EEE70120ECE700BF53
:10242C0000200240001002400C400008DC3E000876
:10243C003C000020014B1868704700BF3C00002096
:10244C0008B5FFF7F7FF074B5B6803F4E0634FF445
:10245C00E06292FAA2F2B2FA82F2D340024AD35C60
:10246C00D84008BD00100240EC3E000808B5FFF74C
:10247C00E1FF074B5B6803F460534FF4605292FA30
:10248C00A2F2B2FA82F2D340024AD35CD84008BD21
:10249C0000100240EC3E0008F0B583B0044603681F
:1024AC0013F0130F2CD0236813F0010F5CD063686A
:1024BC0043B1B3F5807F05D0B3F5007F02D0B3F5FF
:1024CC00407F22D1564BDA6942F08052DA61DB69E7
:1024DC0003F080530193019B524A136843F48073B9
:1024EC001360FEF76BFA05464E4B1B6813F4807FA6
:1024FC0010D1FEF763FA431B642BF5D903205AE085
:10250C007E214948FDF7BCFECDE784214648FDF706
:10251C00B7FED7E7424B1B6A13F440731DD06268B9
:10252C0002F440729A4218D03D48016A21F4407678
:10253C004FF4803393FAA3F2B2FA82F23B4D0127A7
:10254C0045F8227093FAA3F3B3FA83F3002245F80B
:10255C002320066211F0010F2FD1314A136A23F4A4
:10256C00407361680B431362236813F0020F11D0A0
:10257C00A36843B1B3F5804F05D0B3F5004F02D03B
:10258C00B3F5404F3CD1264A536823F44043A1682D
:10259C000B435360236813F0100F3ED0E368B3F580
:1025AC00800F00D08BBB1E4A536823F48003E16874
:1025BC000B435360002003B0F0BDFEF7FFF9054656
:1025CC0014E0174B1A6A022393FAA3F3B3FA83F3BA
:1025DC0003F01F0322FA03F313F0010FBDD1FEF732
:1025EC00EDF9401B41F28833984214D8022393FA38
:1025FC00A3F293FAA3F3002BE3D1094B5A6AE2E757
:10260C00BA210948FDF73CFEBDE74FF48B71064833
:10261C00FDF736FEC7E70320CDE70020CBE700BF70
:10262C000010024000700040584000080004424274
:10263C007047704770477047704710B50446036881
:10264C001A6912F0020F11D0DA6812F0020F0DD0D5
:10265C006FF002021A610123037603689B6913F081
:10266C00030F70D0FFF7E6FF0023237623681A6967
:10267C0012F0040F12D0DA6812F0040F0ED06FF0C3
:10268C0004021A610223237623689B6913F4407FAA
:10269C005FD02046FFF7CEFF0023237623681A690C
:1026AC0012F0080F12D0DA6812F0080F0ED06FF08B
:1026BC0008021A61042323762368DB6913F0030FE5
:1026CC004ED02046FFF7B6FF0023237623681A6905
:1026DC0012F0100F12D0DA6812F0100F0ED06FF04B
:1026EC0010021A61082323762368DB6913F4407FF8
:1026FC003DD02046FFF79EFF0023237623681A69FE
:10270C0012F0010F03D0DA6812F0010F36D12368F2
:10271C001A6912F0800F03D0DA6812F0800F34D1EE
:10272C0023681A6912F0400F03D0DA6812F0400FD8
:10273C0032D123681A6912F0200F03D0DA6812F034
:10274C00200F30D110BDFFF774FF2046FFF773FF49
:10275C008AE72046FFF76DFF2046FFF76CFF9BE7EB
:10276C002046FFF766FF2046FFF765FFACE72046E3
:10277C00FFF75FFF2046FFF75EFFBDE76FF001023A
:10278C001A612046FFF754FFC1E76FF080021A610F
:10279C00204600F010F8C3E76FF040021A612046A3
:1027AC00FFF74AFFC5E76FF020021A61204600F0E0
:1027BC0001F8C7E77047704790F83930DBB2122B3D
:1027CC0003D0322B01D0022070478368B3F5805FB1
:1027DC0016D0036A5A1C02621A7803685A60C38CBA
:1027EC00013B9BB2C3844BB90268D36823F08003CE
:1027FC00D3600268D36843F04003D3600020704775
:10280C00036A1B880268C3F30803536003691BB98E
:10281C00036A02330362E2E7036A01330362DEE711
:10282C002DE9F041044642687C4B9A4200F28E80BE
:10283C00E3681BB1B3F5005F40F08E80236933B1C0
:10284C00B3F5806F03D0B3F5C06F40F08B80636934
:10285C0033F00C0200D123B940F255717048FDF7EA
:10286C000FFD2268136923F44053E1680B43136195
:10287C00A3682269134362691A432168CB6823F465
:10288C00B05323F00C031343CB602268536923F439
:10289C004073A1690B4353612268624B9A4267D023
:1028AC00FFF7CEFD00EB800000EB80006568AD000B
:1028BC00B0FBF5F55C4FA7FB05356D092E01FFF755
:1028CC00BFFD00EB800000EB80006568AD00B0FB45
:1028DC00F5F5FFF7B5FD00EB800000EB80006368B9
:1028EC009B00B0FBF3F3A7FB03235B094FF06408D9
:1028FC0008FB13531B013233A7FB03235B0903F0C3
:10290C00F003F518FFF79CFD00EB800000EB800056
:10291C006668B600B0FBF6F6FFF792FD00EB8000A0
:10292C0000EB800063689B00B0FBF3F0A7FB00306A
:10293C00400908FB106000013230A7FB0037C7F3D9
:10294C00431723682F449F60BDE8F08140F2527119
:10295C003348FDF795FC6BE740F253713048FDF7B7
:10296C008FFC6BE740F254712D48FDF789FC6EE744
:10297C00FFF77CFD00EB800000EB80006568AD008C
:10298C00B0FBF5F5284FA7FB05356D092E01FFF7B8
:10299C006DFD00EB800000EB80006568AD00B0FBC6
:1029AC00F5F5FFF763FD00EB800000EB800063683A
:1029BC009B00B0FBF3F3A7FB03235B094FF0640808
:1029CC0008FB13531B013233A7FB03235B0903F0F2
:1029DC00F003F518FFF74AFD00EB800000EB8000D8
:1029EC006668B600B0FBF6F6FFF740FD00EB800022
:1029FC0000EB800063689B00B0FBF3F0A7FB00309A
:102A0C00400908FB106000013230A7FB0037C7F308
:102A1C00431723682F449F6096E700BF20AA440009
:102A2C0090400008003801401F85EB51002872D0FF
:102A3C0010B5044683690BB30368384A93420CD033
:102A4C00A2F57442934208D002F58062934204D0FE
:102A5C0040F207113248FDF713FCA369FBB1B3F543
:102A6C00807F1CD0B3F5007F19D0B3F5407F16D012
:102A7C004FF484712A48FDF703FC10E00368274AE1
:102A8C0093420CD0A2F57442934208D002F58062B6
:102A9C00934204D04FF486712148FDF7F1FBA368F3
:102AAC0013B1B3F5805F24D1E36943BB94F839309B
:102ABC005BB3022384F839302268D36823F40053C3
:102ACC00D3602046FFF7ACFE2268136923F49043D1
:102ADC0013612268536923F02A0353612268D36877
:102AEC0043F40053D3600020E063012384F83930B1
:102AFC0010BD4FF487710A48FDF7C2FBD4E740F2D2
:102B0C000F110748FDF7BCFBD0E784F8383020469E
:102B1C00FDF77AFDCDE70120704700BF003801407A
:102B2C009040000810B50446134690F83900C0B226
:102B3C00012801D0222836D1002936D0002B36D0DE
:102B4C0094F83820012A34D0012284F838202162EC
:102B5C00A384E3840022E26394F83920D2B2222ABF
:102B6C001DD0122284F83920226B13489062226BFC
:102B7C001248D062226B1248106322680432206B18
:102B8C00FEF78EF823686FF040021A6022685369D2
:102B9C0043F080035361002084F8380010BD3222CA
:102BAC0084F83920E0E70220F8E70120F6E701205D
:102BBC00F4E70220F2E700BF692C0008C72C0008DC
:102BCC00D12D000810B50446134690F83900C0B258
:102BDC00012801D0122832D1002932D0002B32D05A
:102BEC0094F83820012A30D0012284F83820A162D0
:102BFC00A3850022E26394F83920D2B2122A1AD0AB
:102C0C00222284F83920626B11489062626B114861
:102C1C00D062626B1048106320680A46011D606B1D
:102C2C00FEF73EF82268536943F0400353610020DD
:102C3C0084F8380010BD322284F83920E3E70220F2
:102C4C00F8E70120F6E70120F4E70220F2E700BFE5
:102C5C00D12C0008C52D0008D12D000808B503465D
:102C6C00406A1B681B6813F0200F0CD10023C3842F
:102C7C000268536923F0800353610268D36843F000
:102C8C004003D36008BD01F07FF8FBE708B502688C
:102C9C00D36823F04003D36090F83930DBB2322B89
:102CAC0006D0012380F8393001F06EF8002008BD01
:102CBC00222380F83930F7E7704708B5406AFFF7F0
:102CCC00FBFF08BD08B50346406A1B681B6813F080
:102CDC00200F0ED10023C3850268536923F04003F3
:102CEC00536190F83930DBB2322B05D0012380F8D8
:102CFC00393001F02BF808BD122380F83930F8E791
:102D0C0008B590F83930DBB2222B01D0322B4ED1E2
:102D1C008368B3F5805F29D00369002B3AD103682F
:102D2C005A68836A591C81621A70C38D013B9BB22D
:102D3C00C385002B3DD10268D36823F02003D360F8
:102D4C0090F83930DBB2322B2DD00268D36823F4E3
:102D5C008073D3600268536923F00103536101232C
:102D6C0080F8393000F0F2FF002023E0826A03691A
:102D7C0043B903685B68C3F308031380836A0233A7
:102D8C008362D2E703685B68DBB21380836A01332A
:102D9C008362CAE703685B68826A511C816203F034
:102DAC007F031370C1E7122380F83930DAE7022071
:102DBC0000E0002008BD704708B5406AFFF7FBFF34
:102DCC0008BD704708B5406A0023C385C38401233E
:102DDC0080F83930C36B43F01003C363FFF7F1FF86
:102DEC0008BD10B582B0044603681968DA6811F0A2
:102DFC00010F06D002F480721AB1C26B42F00102CC
:102E0C00C26319685A6902F0010211F0020F04D072
:102E1C001AB1E16B41F00401E163196811F0040F80
:102E2C0004D01AB1E16B41F00201E163196811F0B1
:102E3C00080F04D01AB1E26B42F00802E2631A6880
:102E4C00DB6803F0200312F0200F00D0ABB923682D
:102E5C001A68DB6803F0800312F0800F00D083B98E
:102E6C0023681A68DB6803F0400312F0400F00D0AF
:102E7C005BB9E36B6BB902B010BD2046FFF740FFA6
:102E8C00E5E72046FFF798FCEAE72046FFF7FEFE51
:102E9C00EFE723681A6801925B680193019B012399
:102EAC0084F839302046FFF78CFFE4E7014B1860BB
:102EBC00704700BF3C040020014B5860704700BFB6
:102ECC003C040020014B9860704700BF3C0400207C
:102EDC00014BD860704700BF3C04002010B504467D
:102EEC00032806D80549064B53F82400FEF750F882
:102EFC0010BD23210348FDF7C3F9F3E73C04002080
:102F0C00F0400008C840000870B504460D4616464F
:102F1C00032807D8F2B22946054B53F82400FEF7D4
:102F2C00E5F970BD28210348FDF7AAF9F2E700BFC7
:102F3C00F0400008C840000838B504460D4601288A
:102F4C0004D8054B53F824305D6038BD2B21034861
:102F5C00FDF796F9F5E700BF28410008004100088D
:102F6C0008B5044B53F82000FEF756FB00B908BD1A
:102F7C000120FCE72841000800B583B013460A2263
:102F8C0000920A4641000548FEF70AFC10B903B04E
:102F9C005DF804FB4FF0FF30F9E700BF4000002064
:102FAC00014B5860704700BFB8000020014B98607F
:102FBC00704700BFB800002008B50548FEF78CFC30
:102FCC0008B1012008BD0248FEF7D6FC0020F9E745
:102FDC00B800002008B50248FEF7E4FC08BD00BFAD
:102FEC00B800002008B50248FFF727FB08BD00BF5A
:102FFC00C800002008B50248FFF71FFB08BD00BF42
:10300C00C800002038B504460D46022804D8054BEC
:10301C0053F824305D6038BD38210348FDF730F992
:10302C00F5E700BF5C4100083041000808B5044BCF
:10303C0053F82000FFF7FAFC00B908BD0120FCE7AB
:10304C005C41000808B50A4601460448FFF76AFDD2
:10305C0000B908BD4FF0FF30FBE700BF4401002072
:10306C0008B582B20348FFF7ADFD00B908BD4FF0BB
:10307C00FF30FBE7840100200FB400B583B004A936
:10308C0051F8040B019100F0B7F803B05DF804EBB4
:10309C0004B0704738B505460B4B1C6802E00120A4
:1030AC0000F03EFE094B1B7823B96319064A1268DF
:1030BC009342F4D82C44044B1B689C4201D9002049
:1030CC0038BD0120FCE700BF64080020C4010020CB
:1030DC0008B56420FFF7DEFF98B90A4B1B686BB18B
:1030EC00084A591C11600A21197007481168091AFD
:1030FC0089B2FFF7A7FF054B00221A70014B024A59
:10310C001A6008BD4C0800204C040020C4010020AB
:10311C000FB430B583B006AC54F8045B6420FFF7F1
:10312C00B9FF01942146284600F066F8074B1B684E
:10313C00074A9B1AB3F5617F04DC03B0BDE830404D
:10314C0004B07047FFF7C4FFF7E700BF4C0800203E
:10315C004C04002008B42DE9F04183B007460D461D
:10316C00164609AC54F8048B6420FFF793FF3B46DA
:10317C00324629460848FFF77FFF01942146404616
:10318C0000F03AF80548FFF777FFFFF7A1FF03B00F
:10319C00BDE8F04101B070476841000804430008E5
:1031AC00014B01221A707047C401002010B504466F
:1031BC000A2807D0094B1B6843B1591C074A1160F8
:1031CC001C7010BD0D20FFF7F1FFF3E7044B1B68DB
:1031DC00002BF6D020469847F3E700BF4C080020A0
:1031EC005008002010B5044602E00134FFF7DEFF62
:1031FC0020780028F9D110BD2DE9F04786B005469E
:10320C000191E7E002352278302A04D02D2A06D02D
:10321C00002600240EE0A51C62780126F9E7A51C07
:10322C0062780226F5E704EB840402EB4404303C9C
:10323C0015F8012BA2F13003DBB2092BF3D96C2A60
:10324C0001D04C2A03D146F0040615F8012B002AB4
:10325C0000F0CB80602A14D9A2F12003DBB2A3F1D9
:10326C00420116294AD8DFE801F04D333A49494961
:10327C00494949494949494F4949490E493A4949F6
:10328C0047001346EBE7019B1A1D0192D3F80090FF
:10329C00002700E0013719F80730002BFAD103E0C2
:1032AC002020FFF783FF474616F0020F04D107F1E9
:1032BC000108A742F4D347464846FFF793FF03E0C3
:1032CC002020FFF773FF37467E1CA742F8D381E01E
:1032DC00019B1A1D01921878FFF768FF7AE00A200B
:1032EC0016F0040F12D001990F1D01970968442B99
:1032FC0018D04FF0000C2BE01020F1E71046FFF730
:10330C0055FF67E00220EBE70820E9E7442B04D0E7
:10331C0001990F1D01970968E9E701990F1D0197A4
:10332C000968E4E70029E4DA494246F00806E0E7D8
:10333C0027273B44DBB20CF1010730330CF11808A2
:10334C00E84408F8103C70450FD80F2F0DD8BC4638
:10335C00B1FBF0F700FB1713DBB28E463946092B95
:10336C00E9D9782AE4D00727E3E716F0080F08D04C
:10337C0007F118030DEB03072D2307F8103C0CF194
:10338C00020716F0010F0ED04FF0300AB84616F0B7
:10339C00020F0CD108F10109A04507D25046FFF7E6
:1033AC0005FFC846F3E74FF0200AEFE7C846013F98
:1033BC0007F118036B4413F8100CFFF7F7FE002FFE
:1033CC00F5D103E02020FFF7F1FEB04608F101062D
:1033DC00A045F7D32C4614F8010B30B125283FF447
:1033EC0011AFFFF7E3FE2546F4E706B0BDE8F08722
:1033FC00F0B585B005460E461446FFF7BDFD0746F1
:10340C0010B9384605B0F0BD33780293019400959D
:10341C00034B1A2203490448FFF79CFEF1E700BF57
:10342C0078410008A4410008A041000810B5002410
:10343C00032C0ADC04EB4403054800EB430000F0CA
:10344C0027F8034610B90134F2E70023184610BDE3
:10345C002400002010B5002407E004EB44025300C4
:10346C000348184400F042F80134032CF5DD10BD7C
:10347C002400002008B505490020FFF75DFD002061
:10348C00FFF76EFD00B908BD0120FCE7A086010026
:10349C0030B585B005464388104CA4FB0324E408E2
:1034AC0042F20F7293420ED82A79230A43EA82031E
:1034BC008DF80C308DF80D40022203A92878FFF707
:1034CC0097FF05B030BD027801930092044B202287
:1034DC0004490548FFF73EFEE6E700BFCDCCCCCC57
:1034EC00B0410008F0410008A041000810B50446A6
:1034FC0001780F48FFF70CFE2379032B06D8DFE881
:10350C0003F0020A0E120B48FFF702FE61880A480C
:10351C00FFF7FEFD10BD0948FFF7FAFDF6E7084876
:10352C00FFF7F6FDF2E70748FFF7F2FDEEE700BF05
:10353C00C8410008D4410008E4410008D841000803
:10354C00DC410008E041000870B505460E464FF41A
:10355C0016510220FFF756FD0220FFF767FD0246C9
:10356C0008B1104670BD144B1C6834442946082021
:10357C00FFF776FD04E01148FFF7CAFDFFF7A8FD41
:10358C000D4B1B68A34203D20D4B1B68002BF2D1D1
:10359C000B4B1A6872B9134602E00021E95401334F
:1035AC00022BFADD032302E04021E9540133062B00
:1035BC00FADDD6E70122D4E764080020FC410008BC
:1035CC00C801002010B4802806D0184B1B68062BAD
:1035DC001DDC174AD05402E0144B00221A60134B26
:1035EC001B68082B1FDC0133104A1360002010BC31
:1035FC0070470F4C14F802C06344DBB20132062A48
:10360C00F7DD434013F07F0F04D1002308E00122C3
:10361C000023F4E70220EAE7054AD25CCA540133DE
:10362C00072BF9DDDBE70320E1E700BF540800209E
:10363C0058080020F8B505460026104B1B68B3420D
:10364C000BDC0F460024072C11DC3946285DFFF7F4
:10365C00B9FF064658B90134F5E7084A1368013B2F
:10366C00136001460820FFF7FBFC304604E02946B6
:10367C000820FFF7F5FC3046F8BD00BFC80100205C
:10368C00C37813F0800F04D1C37823B1C0784038CD
:10369C007047402070476FF03F007047037913F07C
:1036AC00800F04D1037923B1007940387047402052
:1036BC0070476FF03F007047437913F0800F04D1CF
:1036CC00437923B1407940387047402070476FF000
:1036DC003F007047837913F0800F04D1837923B1B5
:1036EC00807940387047402070476FF03F0070473A
:1036FC00F0B583B00446837803F00303032B00F08A
:10370C00BB80837813F0010F40F0B18000258E4808
:10371C00FFF7FEFC002D40F0B180A37803F003030B
:10372C00032B00F0B480A37813F0020F40F0AA80B2
:10373C0000258648FFF7ECFC002D40F0AA80A3780A
:10374C0003F00C030C2B00F0AD80A37813F0040FE6
:10375C0040F0A38000257E48FFF7DAFC002D40F0F6
:10376C00A380A37803F00C030C2B00F0A680A378A5
:10377C0013F0080F40F09C8000257648FFF7C8FC3A
:10378C00002D40F09C80637813F0010540F09B8085
:10379C007148FFF7BDFC002D40F09980A37813F021
:1037AC00200540F098806D48FFF7B2FC002D40F0EA
:1037BC009680A37813F0400540F095806848FFF799
:1037CC00A7FC002D40F09380A37813F0100540F077
:1037DC0092806448FFF79CFC002D40F09080637849
:1037EC0013F0020540F08F805F48FFF791FC002D2D
:1037FC0040F08D80637813F0040540F08C805B48BA
:10380C00FFF786FC002D40F08A80637813F00805E2
:10381C0040F089805648FFF77BFC002D40F08780F4
:10382C00637813F0100540F086805248FFF770FC67
:10383C00002D40F084805048FFF76AFC2046FFF7CB
:10384C001FFF05462046FFF729FF06462046FFF7D7
:10385C0033FF07462046FFF73DFF00903B463246BC
:10386C0029464648FFF754FC002003B0F0BD4448FD
:10387C00FFF74EFC01254AE7002548E74148FFF7D2
:10388C0047FC4AE73E48FFF743FC012551E700257A
:10389C004FE73C48FFF73CFC51E73948FFF738FC51
:1038AC00012558E7002556E73648FFF731FC58E765
:1038BC003348FFF72DFC01255FE700255DE7314814
:1038CC00FFF726FC5FE72E48FFF722FC60E72D4848
:1038DC00FFF71EFC62E72A48FFF71AFC63E729484A
:1038EC00FFF716FC65E72648FFF712FC66E725484C
:1038FC00FFF70EFC68E72248FFF70AFC69E721484E
:10390C00FFF706FC6BE71E48FFF702FC6CE71D484F
:10391C00FFF7FEFB6EE71A48FFF7FAFB6FE7194853
:10392C00FFF7F6FB71E71648FFF7F2FB72E7154855
:10393C00FFF7EEFB74E71248FFF7EAFB75E7114857
:10394C00FFF7E6FB77E700BF1042000828420008AB
:10395C003042000838420008404200084842000843
:10396C004C420008544200085C42000864420008C3
:10397C006C42000874420008044300087C420008B2
:10398C0000420008184200080020704700B595B0AE
:10399C0009230A934FF480330B9300220C920122DB
:1039AC0010920222119212934FF4E01313930AA86F
:1039BC00FEF71EF848BB0F23059302210691002346
:1039CC0007934FF480620892099305A8FEF7E0FB79
:1039DC0028BB022301934FF40043039301A8FEF785
:1039EC005BFD20BBFEF726FD4FF47A73B0FBF3F0C2
:1039FC00FDF772F80420FDF783F8002211464FF012
:103A0C00FF30FDF70DF8002006E00D4BD1220D49DB
:103A1C000D48FFF79FFB012015B05DF804FB0B4B25
:103A2C00DC2208490848FFF795FB0120F4E7084B16
:103A3C00E32204490448FFF78DFB0120ECE700BFAB
:103A4C0094420008E4430008A0410008A442000886
:103A5C00B842000800B585B0284B9A6942F00402C0
:103A6C009A619A6902F004020092009A9A6942F0F3
:103A7C0008029A619A6902F008020192019A9A6905
:103A8C0042F010029A619A6902F010020292029AB4
:103A9C009A6942F020029A619B6903F02003039318
:103AAC00039B4FF40050FFF701FA0020FFF704FAD4
:103ABC000020FFF707FA0220FFF710FA2020FFF78B
:103ACC00F5F90120FFF7F8F90220FFF701FA0020C1
:103ADC00FFF704FA1020FFF7E9F90948FFF7ECF9B2
:103AEC000020FFF7EFF90220FFF7F8F90022202160
:103AFC001046FFF709FA05B05DF804FB0010024010
:103B0C000000111038B5FCF73FFF10B1012420461E
:103B1C0038BDFFF73BFF08B10124F8E70120FFF7A0
:103B2C0085FAFFF7D5FAFFF7A5FC04460028EED17D
:103B3C00FFF790FFFCF77AFB1A4BA9221A491B4896
:103B4C00FFF708FB1A491B48FFF7FEFCD0B9164DCE
:103B5C00164C194BAF2229462046FFF7FBFA174BA0
:103B6C00B22229462046FFF7F5FA0220FFF718FA91
:103B7C00FA20FFF71BFAFFF71FFA044650B9FCF7BF
:103B8C0055FBC4E70E4BAB2207490E48FFF7E2FA90
:103B9C000124BCE70C4BB72229460A48FFF7DAFA96
:103BAC00B5E700BFD4420008F4430008B83E000853
:103BBC00A086010068080020084300081C43000888
:103BCC00F0420008A04100082C43000808B5FCF79F
:103BDC004FFB08BD08B5FFF729FC08BD00B583B045
:103BEC00FFF790FF90B90A20FFF7CEFEC8B93B4B08
:103BFC0000221A603A4B44223A493B48FFF7AAFA92
:103C0C003A48FFF785FAFFF763FA39E00090384B32
:103C1C00352234493748FFF79DFA6420FFF73AFA0A
:103C2C0009E00090344B3C222E493248FFF792FABF
:103C3C006420FFF72FFA012003B05DF804FB274B3B
:103C4C001A682E4BA3FB0213DB0803EB8303A2EBD6
:103C5C004303042BF3D1FFF7BDFF80BB1F4B1A6846
:103C6C00264BA3FB0213DB0803EB8303B2EB430FDE
:103C7C00F4D1234B1A6801321A601B68132B26D817
:103C8C00FFF7A8F9FFF7A2FF144B1A681D4BA3FB13
:103C9C0002131B09322101FB1323092BCFD81A481D
:103CAC00FFF736FA1948FFF723FDFFF7D3FB184B44
:103CBC0019781848FFF72CFAFFF70AFABFE70090BB
:103CCC00154B602207490B48FFF744FAB3E7134B37
:103CDC00692204490748FFF73DFAFEE76408002013
:103CEC0078430008FC430008B83E000884430008F1
:103CFC0048430008A04100085C430008CDCCCCCC64
:103D0C00600800201F85EB518843000868080020DC
:103D1C00CC0100209043000894430008B0430008F5
:103D2C0010B582B00446084B1B68019301E0FFF705
:103D3C0051F9019B2344044A12689342F7D8FFF7C8
:103D4C0049F902B010BD00BF6408002008B508494D
:103D5C000848FFF76FFC18B9074B00221A6008BD22
:103D6C00064B4FF4887206490648FFF7F3F9F3E760
:103D7C00680800207008002060080020C443000878
:103D8C00CC430008A041000808B5FFF709FA08BDAC
:103D9C00002103E00B4B5B58435004310A480B4B9A
:103DAC0042189A42F6D30A4A02E0002342F8043B36
:103DBC00084B9A42F9D3FCF759FD00F00FF8FFF7C6
:103DCC000DFF70470C44000800000020D0010020BB
:103DDC00D001002078080020FEE7000070B5002616
:103DEC000C4D0D4C641BA410A64209D100F022F816
:103DFC0000260A4D0A4C641BA410A64205D170BDC6
:103E0C0055F8043B98470136EEE755F8043B9847C4
:103E1C000136F2E704440008044400080444000896
:103E2C000844000803460244934200D1704703F84B
:103E3C00011BF9E7F8B500BFF8BC08BC9E467047FB
:0C3E4C00F8B500BFF8BC08BC9E467047EB
:103E580064000000E10000006C6566742061646A1B
:103E680075737400000000007269676874206164EB
:103E78006A757374000000007374656572696E6713
:103E88002074696D6500000072632074696D656F48
:103E98007574000000000000726320636E74722065
:103EA800746865726573000068656C6C00000000DA
:103EB8006D736700706C7A20636F6E6669726D0A45
:103EC80025640A00617070496E6974002A31306D8A
:103ED800730000000000000000000000010203045D
:103EE800060708090000000001020304447269760D
:103EF8006572732F53544D3332463178785F484199
:103F08004C5F4472697665722F5372632F73746DB8
:103F18003332663178785F68616C5F636F7274659D
:103F2800782E6300447269766572732F53544D334B
:103F380032463178785F48414C5F447269766572E1
:103F48002F5372632F73746D3332663178785F68DC
:103F5800616C5F646D612E630000000044726976D5
:103F68006572732F53544D3332463178785F484128
:103F78004C5F4472697665722F5372632F73746D48
:103F88003332663178785F68616C5F6770696F2E6D
:103F980063000000447269766572732F53544D3381
:103FA80032463178785F48414C5F44726976657271
:103FB8002F5372632F73746D3332663178785F686C
:103FC800616C5F6932632E63000000004472697699
:103FD8006572732F53544D3332463178785F4841B8
:103FE8004C5F4472697665722F5372632F73746DD8
:103FF8003332663178785F68616C5F697764672E01
:1040080063000000447269766572732F53544D3310
:1040180032463178785F48414C5F44726976657200
:104028002F5372632F73746D3332663178785F68FB
:10403800616C5F7263632E63000000000203040575
:10404800060708090A0B0C0D0E0F101000000000DF
:10405800447269766572732F53544D333246317802
:10406800785F48414C5F4472697665722F5372637A
:104078002F73746D3332663178785F68616C5F7264
:1040880063635F65782E6300447269766572732F87
:1040980053544D3332463178785F48414C5F44720F
:1040A800697665722F5372632F73746D333266317C
:1040B80078785F68616C5F756172742E63000000C8
:1040C800447269766572732F6D6964646C654C61BE
:1040D800796572732F4750494F2F5372632F4D578D
:1040E8005F4750494F2E630000080140000C014013
:1040F8000010014000140140447269766572732F04
:104108006D6964646C654C61796572732F493243DB
:104118002F5372632F4D575F4932432E63000000BF
:10412800400000207C000020447269766572732F7D
:104138006D6964646C654C61796572732F55415281
:10414800542F5372632F4D575F55534152542E636A
:104158000000000004010020440100208401002028
:10416800252D31307320252D336420252D387300FB
:104178007472616E73206661696C642061742028B2
:104188002578292073697A652025642C6461746117
:104198005B305D3D256400006572720044445F49F0
:1041A800324353656E6400005B25785D64757479ED
:1041B800206F76657220666C6F7728256429000069
:1041C8004D442825303278293A5B000046720000B9
:1041D8004677000042770000427200005D2C5B25A4
:1041E80034645D0A0000000044445F73656E643205
:1041F8004D440000243000001B5B313B33336D1B02
:104208005B34306D00000000E28691202000000041
:104218001B5B303B33396D1B5B34396D000000008C
:10422800E286932020000000E28692202000000011
:10423800E286902020000000E296A12020000000E5
:1042480058202000E2978B2020000000E296B3203F
:10425800200000004C312020000000004C322020BB
:1042680000000000523120200000000052322020BF
:1042780000000000282533642C253364292C2825C8
:1042880033642C253364290A000000006F736343EC
:104298006F6E6669674661696C640000636C6F6382
:1042A8006B436F6E6669674661696C640000000065
:1042B80048414C5F52434345785F50657269706866
:1042C800434C4B436F6E6669670000007761697401
:1042D80020666F7220524320636F6E6E6563746947
:1042E8006F6E2E2E2E000000524320696E6974698D
:1042F800616C697A65206661696C64210A00000056
:10430800524320636F6E6E656374656420737563D2
:10431800657373004957444720696E697469616C15
:10432800697A65004957444720696E697469616C08
:10433800697A65206661696C6564210A000000007D
:10434800696E697469616C697A65204661696C6433
:1043580025640000493243436F6E6E656374696F6C
:104368006E54657374204661696C642564000000AE
:10437800737461727421210A000000001B5B324AC9
:104388001B5B313B31480000242564004465766995
:10439800636520447269766572205461736B73207B
:1043A8004661696C64256400524320646973636FD5
:1043B8006E6E656374656421000000007263206599
:1043C8007272000048414C5F554152545F52784325
:1043D800706C7443616C6C6261636B0053595F630A
:1043E8006C6F636B496E69740000000053595F6914
:0C43F8006E6974006D61696E00000000C9
:04440400310100087A
:044408000D0100089A
:10440C0018020020F40100203C0200206002002071
:10441C0084020020A8020020CC020020F002002020
:10442C001403002010000000000011000000000028
:10443C0012000000000013000000000000A24A045B
:10444C0000540040A08601000000000000000000A5
:10445C000040000000000000000000000000000010
:10446C000000000000000000000000000000000040
:10447C000000000000000000000000000058004098
:10448C00A0860100000000000000000000400000B9
:10449C000000000000000000000000000000000010
:1044AC000000000000000000000000000000000000
:1044BC000000000000000000003000400000000080
:1044CC00FF0F000000000000002C01400000000065
:1044DC0000000000000000000000000000000000D0
:1044EC0000000000000000000000000000000000C0
:1044FC0000000000000000000000000000000000B0
:10450C00000000000038014000C201000000000063
:10451C0000000000000000000C0000000000000083
:10452C00000000000000000000000000000000007F
:10453C00000000000000000000000000000000006F
:10454C00000000000044004000C201000000000018
:10455C0000000000000000000C0000000000000043
:10456C00000000000000000000000000000000003F
:10457C00000000000000000000000000000000002F
:10458C0000000000004800408025000000000000F2
:10459C0000000000000000000C0000000000000003
:1045AC0000000000000000000000000000000000FF
:1045BC0000000000000000000000000000000000EF
:1045CC0000000000010000000900000001000000D4
:0400000508003D9D15
:00000001FF
